:020000040800F2
:1000000000500020051A0008E9190008EB19000843
:10001000ED190008EF190008F119000800000000B0
:10002000000000000000000000000000F3190008BC
:10003000F519000800000000F7190008F919000878
:100040004D1A00084D1A00084D1A00084D1A0008F4
:100050004D1A00084D1A00084D1A00084D1A0008E4
:100060004D1A00084D1A00084D1A00084D1A0008D4
:100070004D1A00084D1A00084D1A00084D1A0008C4
:100080004D1A00084D1A00084D1A00084D1A0008B4
:100090004D1A00084D1A00084D1A00084D1A0008A4
:1000A0004D1A00084D1A00084D1A00084D1A000894
:1000B0004D1A00084D1A00084D1A00084D1A000884
:1000C0004D1A00084D1A00084D1A00084D1A000874
:1000D0004D1A00084D1A00084D1A00084D1A000864
:1000E0004D1A00084D1A00084D1A000800000000C3
:1000F0000000000000000000000000000000000000
:0C01000000000000000000005FF808F1A3
:10010C0010B5054C237833B9044B13B10448AFF345
:10011C0000800123237010BD40040020000000006B
:10012C008028000808B5034B1BB103490348AFF303
:10013C00008008BD00000000440400208028000856
:10014C0081F0004102E000BF83F0004330B54FEA7C
:10015C0041044FEA430594EA050F08BF90EA020FE9
:10016C001FBF54EA000C55EA020C7FEA645C7FEA7C
:10017C00655C00F0E2804FEA5454D4EB5555B8BF9F
:10018C006D420CDD2C4480EA020281EA030382EA10
:10019C00000083EA010180EA020281EA0303362DA2
:1001AC0088BF30BD11F0004F4FEA01314FF4801C75
:1001BC004CEA113102D0404261EB410113F0004F87
:1001CC004FEA03334CEA133302D0524263EB43033E
:1001DC0094EA050F00F0A780A4F10104D5F1200EDC
:1001EC000DDB02FA0EFC22FA05F2801841F1000137
:1001FC0003FA0EF2801843FA05F359410EE0A5F10B
:10020C0020050EF1200E012A03FA0EFC28BF4CF03B
:10021C00020C43FA05F3C01851EBE37101F00045F1
:10022C0007D54FF0000EDCF1000C7EEB00006EEBFE
:10023C000101B1F5801F1BD3B1F5001F0CD3490888
:10024C005FEA30004FEA3C0C04F101044FEA4452DF
:10025C0012F5800F80F09A80BCF1004F08BF5FEA66
:10026C00500C50F1000041EB045141EA050130BD46
:10027C005FEA4C0C404141EB0101013C28BFB1F558
:10028C00801FE9D291F0000F04BF01460020B1FAA3
:10029C0081F308BF2033A3F10B03B3F120020CDA76
:1002AC000C3208DD02F1140CC2F10C0201FA0CF054
:1002BC0021FA02F10CE002F11402D8BFC2F1200CB9
:1002CC0001FA02F120FA0CFCDCBF41EA0C0190406F
:1002DC00E41AA2BF01EB0451294330BD6FEA0404B8
:1002EC001F3C1CDA0C340EDC04F11404C4F12002A3
:1002FC0020FA04F001FA02F340EA030021FA04F3B5
:10030C0045EA030130BDC4F10C04C4F1200220FA0B
:10031C0002F001FA04F340EA0300294630BD21FA49
:10032C0004F0294630BD94F0000F83F4801306BF0F
:10033C0081F480110134013D4EE77FEA645C18BF03
:10034C007FEA655C29D094EA050F08BF90EA020F9A
:10035C0005D054EA000C04BF1946104630BD91EA92
:10036C00030F1EBF0021002030BD5FEA545C05D195
:10037C004000494128BF41F0004130BD14F58004D4
:10038C003CBF01F5801130BD01F0004545F0FE4148
:10039C0041F470014FF0000030BD7FEA645C1ABF7D
:1003AC00194610467FEA655C1CBF0B46024650EAB4
:1003BC00013406BF52EA033591EA030F41F40021E0
:1003CC0030BD00BF90F0000F04BF0021704730B566
:1003DC004FF4806404F132044FF000054FF000013B
:1003EC0050E700BF90F0000F04BF0021704730B5FC
:1003FC004FF4806404F1320410F0004548BF4042D1
:10040C004FF000013EE700BF42004FEAE2014FEA25
:10041C0031014FEA02701FBF12F07F4393F07F4F00
:10042C0081F06051704732F07F4208BF704793F003
:10043C007F4F04BF41F40021704730B54FF4607416
:10044C0001F0004521F000411CE700BF50EA010219
:10045C0008BF704730B54FF000050AE050EA0102C2
:10046C0008BF704730B511F0004502D5404261EB32
:10047C0041014FF4806404F132045FEA915C3FF473
:10048C00D8AE4FF003025FEADC0C18BF03325FEA10
:10049C00DC0C18BF033202EBDC02C2F1200300FAC1
:1004AC0003FC20FA02F001FA03FE40EA0E0021FAE6
:1004BC0002F11444BDE600BF70B54FF0FF0C4CF4D4
:1004CC00E06C1CEA11541DBF1CEA135594EA0C0F86
:1004DC0095EA0C0F00F0DEF82C4481EA030621EAC1
:1004EC004C5123EA4C5350EA013518BF52EA0335FC
:1004FC0041F4801143F4801338D0A0FB02CE4FF0AE
:10050C000005E1FB02E506F00042E0FB03E54FF0DD
:10051C000006E1FB03569CF0000F18BF4EF0010ED5
:10052C00A4F1FF04B6F5007F64F5407404D25FEAD1
:10053C004E0E6D4146EB060642EAC62141EA555184
:10054C004FEAC52040EA5E504FEACE2EB4F1FD0CC6
:10055C0088BFBCF5E06F1ED8BEF1004F08BF5FEA44
:10056C00500E50F1000041EB045170BD06F00046F6
:10057C0046EA010140EA020081EA0301B4EB5C04A3
:10058C00C2BFD4EB0C0541EA045170BD41F480119B
:10059C004FF0000E013C00F3AB8014F1360FDEBFC0
:1005AC00002001F0004170BDC4F10004203C35DA9C
:1005BC000C341BDC04F11404C4F1200500FA05F31F
:1005CC0020FA04F001FA05F240EA020001F00042C0
:1005DC0021F0004110EBD37021FA04F642EB060136
:1005EC005EEA430E08BF20EAD37070BDC4F10C0460
:1005FC00C4F1200500FA04F320FA05F001FA04F224
:10060C0040EA020001F0004110EBD37041F100010F
:10061C005EEA430E08BF20EAD37070BDC4F120051A
:10062C0000FA05F24EEA020E20FA04F301FA05F282
:10063C0043EA020321FA04F001F0004121FA04F22A
:10064C0020EA020000EBD3705EEA430E08BF20EAFA
:10065C00D37070BD94F0000F0FD101F00046400034
:10066C0041EB010111F4801F08BF013CF7D041EAB6
:10067C00060195F0000F18BF704703F000465200BA
:10068C0043EB030313F4801F08BF013DF7D043EA8B
:10069C000603704794EA0C0F0CEA135518BF95EA41
:1006AC000C0F0CD050EA410618BF52EA4306D1D1C8
:1006BC0081EA030101F000414FF0000070BD50EAE7
:1006CC00410606BF1046194652EA430619D094EA71
:1006DC000C0F02D150EA013613D195EA0C0F05D15B
:1006EC0052EA03361CBF104619460AD181EA0301AF
:1006FC0001F0004141F0FE4141F470014FF0000067
:10070C0070BD41F0FE4141F4780170BD70B54FF001
:10071C00FF0C4CF4E06C1CEA11541DBF1CEA135581
:10072C0094EA0C0F95EA0C0F00F0A7F8A4EB050463
:10073C0081EA030E52EA03354FEA013100F088805A
:10074C004FEA03334FF0805545EA131343EA126323
:10075C004FEA022245EA111545EA10654FEA0026D8
:10076C000EF000419D4208BF964244F1FD0404F591
:10077C00407402D25B084FEA3202B61A65EB0305ED
:10078C005B084FEA32024FF480104FF4002CB6EBAA
:10079C00020E75EB030E22BFB61A754640EA0C002A
:1007AC005B084FEA3202B6EB020E75EB030E22BF6A
:1007BC00B61A754640EA5C005B084FEA3202B6EBAB
:1007CC00020E75EB030E22BFB61A754640EA9C006A
:1007DC005B084FEA3202B6EB020E75EB030E22BF3A
:1007EC00B61A754640EADC0055EA060E18D04FEAF8
:1007FC00051545EA16754FEA06164FEAC30343EA98
:10080C0052734FEAC2025FEA1C1CC0D111F4801F64
:10081C000BD141EA00014FF000004FF0004CB6E75D
:10082C0011F4801F04BF01430020B4F1FD0C88BFFC
:10083C00BCF5E06F3FF6AFAEB5EB030C04BFB6EB07
:10084C00020C5FEA500C50F1000041EB045170BDFA
:10085C000EF0004E4EEA113114EB5C04C2BFD4EB27
:10086C000C0541EA045170BD41F480114FF0000EAB
:10087C00013C90E645EA060E8DE60CEA135594EA27
:10088C000C0F08BF95EA0C0F3FF43BAF94EA0C0F2A
:10089C000AD150EA01347FF434AF95EA0C0F7FF49F
:1008AC0025AF104619462CE795EA0C0F06D152EAF3
:1008BC0003353FF4FDAE1046194622E750EA4106D7
:1008CC0018BF52EA43067FF4C5AE50EA41047FF4E8
:1008DC000DAF52EA43057FF4EBAE12E74FF0FF3C4D
:1008EC0006E000BF4FF0010C02E000BF4FF0010C1E
:1008FC004DF804CD4FEA410C7FEA6C5C4FEA430C97
:10090C0018BF7FEA6C5C1BD001B050EA410C0CBFE5
:10091C0052EA430C91EA030F02BF90EA020F002047
:10092C00704710F1000F91EA030F58BF994208BFAE
:10093C0090422CBFD8176FEAE37040F0010070476B
:10094C004FEA410C7FEA6C5C02D150EA013C07D1C2
:10095C004FEA430C7FEA6C5CD6D152EA033CD3D00D
:10096C005DF8040B704700BF8446104662468C4607
:10097C001946634600E000BF01B5FFF7B7FF00283A
:10098C0048BF10F1000F01BD4DF808EDFFF7F4FF63
:10099C000CBF012000205DF808FB00BF4DF808EDEE
:1009AC00FFF7EAFF34BF012000205DF808FB00BF11
:1009BC004DF808EDFFF7E0FF94BF012000205DF833
:1009CC0008FB00BF4DF808EDFFF7CEFF94BF0120E8
:1009DC0000205DF808FB00BF4DF808EDFFF7C4FFE1
:1009EC0034BF012000205DF808FB00BF4FEA410234
:1009FC00B2F1E04324BFB3F5001CDCF1FE5C0DD971
:100A0C0001F0004C4FEAC0024CEA5070B2F1004FBA
:100A1C0040EB830008BF20F00100704711F0804FBD
:100A2C0021D113F13872BCBF01F00040704741F482
:100A3C0080114FEA5252C2F11802C2F1200C10FA86
:100A4C000CF320FA02F018BF40F001004FEAC1236A
:100A5C004FEAD32303FA0CFC40EA0C0023FA02F30E
:100A6C004FEA4303CCE77FEA625307D150EA0133E4
:100A7C001EBF4FF0FE4040F44000704701F00040B4
:100A8C0040F0FE4040F40000704700BF80F0004092
:100A9C0002E000BF81F0004142001FBF5FEA41034A
:100AAC0092EA030F7FEA226C7FEA236C6AD04FEA4A
:100ABC001262D2EB1363C1BFD2184140484041408F
:100ACC00B8BF5B42192B88BF704710F0004F40F441
:100ADC00000020F07F4018BF404211F0004F41F45D
:100AEC00000121F07F4118BF494292EA030F3FD029
:100AFC00A2F1010241FA03FC10EB0C00C3F120033C
:100B0C0001FA03F100F0004302D5494260EB4000CA
:100B1C00B0F5000F13D3B0F1807F06D340084FEA35
:100B2C00310102F10102FE2A51D2B1F1004F40EB2A
:100B3C00C25008BF20F0010040EA03007047490092
:100B4C0040EB0000013A28BFB0F5000FEDD2B0FA2F
:100B5C0080FCACF1080CB2EB0C0200FA0CF0AABF52
:100B6C0000EBC25052421843BCBFD04018437047F0
:100B7C0092F0000F81F4000106BF80F400000132F6
:100B8C00013BB5E74FEA41037FEA226C18BF7FEACD
:100B9C00236C21D092EA030F04D092F0000F08BF0F
:100BAC000846704790EA010F1CBF0020704712F0F6
:100BBC007F4F04D1400028BF40F00040704712F135
:100BCC0000723CBF00F50000704700F0004343F09A
:100BDC00FE4040F4000070477FEA226216BF0846D0
:100BEC007FEA23630146420206BF5FEA412390EA93
:100BFC00010F40F4800070474FF0000304E000BF89
:100C0C0010F0004348BF40425FEA000C08BF704739
:100C1C0043F0964301464FF000001CE050EA0102FD
:100C2C0008BF70474FF000030AE000BF50EA010212
:100C3C0008BF704711F0004302D5404261EB4101FF
:100C4C005FEA010C02BF84460146002043F0B64324
:100C5C0008BFA3F18053A3F50003BCFA8CF2083A49
:100C6C00A3EBC25310DB01FA02FC634400FA02FC52
:100C7C00C2F12002BCF1004F20FA02F243EB020059
:100C8C0008BF20F00100704702F1200201FA02FCBB
:100C9C00C2F1200250EA4C0021FA02F243EB0200AE
:100CAC0008BF20EADC7070474FF0FF0C1CEAD052F2
:100CBC001EBF1CEAD15392EA0C0F93EA0C0F6FD0B3
:100CCC001A4480EA010C400218BF5FEA41211ED091
:100CDC004FF0006343EA501043EA5111A0FB01317D
:100CEC000CF00040B1F5000F3EBF490041EAD37152
:100CFC005B0040EA010062F17F02FD2A1DD8B3F1CE
:100D0C00004F40EBC25008BF20F00100704790F03C
:100D1C00000F0CF0004C08BF49024CEA502040EA8E
:100D2C0051207F3AC2BFD2F1FF0340EAC250704754
:100D3C0040F400004FF00003013A5DDC12F1190F92
:100D4C00DCBF00F000407047C2F10002410021FA04
:100D5C0002F1C2F1200200FA02FC5FEA310040F11C
:100D6C00000053EA4C0308BF20EADC70704792F095
:100D7C00000F00F0004C02BF400010F4000F013ACD
:100D8C00F9D040EA0C0093F0000F01F0004C02BFC8
:100D9C00490011F4000F013BF9D041EA0C018FE737
:100DAC000CEAD15392EA0C0F18BF93EA0C0F0AD03D
:100DBC0030F0004C18BF31F0004CD8D180EA010063
:100DCC0000F00040704790F0000F17BF90F0004FFC
:100DDC00084691F0000F91F0004F14D092EA0C0FDE
:100DEC0001D142020FD193EA0C0F03D14B0218BF71
:100DFC00084608D180EA010000F0004040F0FE40B7
:100E0C0040F40000704740F0FE4040F44000704752
:100E1C004FF0FF0C1CEAD0521EBF1CEAD15392EAD1
:100E2C000C0F93EA0C0F69D0A2EB030280EA010CC1
:100E3C0049024FEA402037D04FF0805343EA11115A
:100E4C0043EA10130CF000408B4238BF5B0042F1B8
:100E5C007D024FF4000C8B4224BF5B1A40EA0C005D
:100E6C00B3EB510F24BFA3EB510340EA5C00B3EB8F
:100E7C00910F24BFA3EB910340EA9C00B3EBD10F7D
:100E8C0024BFA3EBD10340EADC001B0118BF5FEACF
:100E9C001C1CE0D1FD2A3FF650AF8B4240EBC250F8
:100EAC0008BF20F0010070470CF0004C4CEA5020B9
:100EBC007F32C2BFD2F1FF0340EAC250704740F408
:100ECC0000004FF00003013A37E792F0000F00F0FA
:100EDC00004C02BF400010F4000F013AF9D040EA78
:100EEC000C0093F0000F01F0004C02BF490011F40C
:100EFC00000F013BF9D041EA0C0195E70CEAD15304
:100F0C0092EA0C0F08D142027FF47DAF93EA0C0FEA
:100F1C007FF470AF084676E793EA0C0F04D14B02CE
:100F2C003FF44CAF08466EE730F0004C18BF31F080
:100F3C00004CCAD130F000427FF45CAF31F000437A
:100F4C007FF43CAF5FE700BF4FF0FF3C06E000BF13
:100F5C004FF0010C02E000BF4FF0010C4DF804CD36
:100F6C004FEA40024FEA41037FEA226C18BF7FEA46
:100F7C00236C11D001B052EA530C18BF90EA010F48
:100F8C0058BFB2EB030088BFC81738BF6FEAE170D7
:100F9C0018BF40F0010070477FEA226C02D15FEA73
:100FAC00402C05D17FEA236CE4D15FEA412CE1D0DF
:100FBC005DF8040B704700BF844608466146FFE7A6
:100FCC000FB5FFF7C9FF002848BF10F1000F0FBD88
:100FDC004DF808EDFFF7F4FF0CBF012000205DF881
:100FEC0008FB00BF4DF808EDFFF7EAFF34BF012006
:100FFC0000205DF808FB00BF4DF808EDFFF7E0FF9F
:10100C0094BF012000205DF808FB00BF4DF808EDEF
:10101C00FFF7D2FF94BF012000205DF808FB00BF52
:10102C004DF808EDFFF7C8FF34BF012000205DF834
:10103C0008FB00BF2DE9F04188B00024049405940E
:10104C0006940794294B9A6942F010029A619A69A6
:10105C0002F010020092009A9A6942F020029A6102
:10106C009A6902F020020192019A9A6942F00402F4
:10107C009A619A6902F004020292029A9A6942F009
:10108C0008029A619B6903F008030393039B184EB3
:10109C0001224FF40051304600F0F9FF154F0122A8
:1010AC00E021384600F0F3FF4FF400530493012580
:1010BC00059506944FF00308CDF81C8004A9304622
:1010CC0000F0CCFEE026049605950694CDF81C8025
:1010DC0004A9384600F0C2FE04960594069504A9AE
:1010EC00054800F0BBFE08B0BDE8F08100100240DE
:1010FC000010014000080140000C0140024BD3F8E5
:10110C00003C0360704700BF00F0000800B583B0DE
:10111C0000F0DCFC4FF0E0214A6901328B69D31AF4
:10112C0001934FF47A71019B01FB03F3B3FBF2F3D0
:10113C0001FB003003B05DF804FB000070B586B015
:10114C00054600F06DFD00240294094E049601231F
:10115C000593019401A902A800F02EFE2A4623460D
:10116C003146022000F0B4FD00F074FD06B070BDF5
:10117C0000FC000872B6FEE700B591B028220021F1
:10118C0006A801F0B5FA002301930293039304938C
:10119C000593012206924FF4803307930A920222A0
:1011AC000D920E934FF4E0130F9306A800F094FFEA
:1011BC0080B90F23019302210291002303934FF472
:1011CC0080620492059301A801F0B8F920B911B01E
:1011DC005DF804FBFFF7CEFFFFF7CCFF08B500F07E
:1011EC0057FCFFF7C9FFFFF725FF2248FFF786FFE3
:1011FC0000F0C6FB4FF400511F4800F04EFFFFF704
:10120C0085FF1E4C20601E4D4021284600F038FF03
:10121C00C0F1010060712021284600F031FFC0F1BF
:10122C00010020718021284600F02AFFC0F1010046
:10123C00A071104B1B68A36000F006F9114CA5F5CA
:10124C00806522782021284600F021FFA278802199
:10125C00284600F01CFF62784021284600F017FF5A
:10126C00237A002BC6D06068FFF768FF0148FFF7B0
:10127C0045FFBFE75C040020001001406004002023
:10128C00000C01406C0400202DE9F04707460E4687
:10129C009246994601463068FFF7B8FE78BB39464E
:1012AC0056F82900FFF7BCFE00283CD04FEA590540
:1012BC00C846002403E02C4604EB08056D08A8EB97
:1012CC000403012B08D9394656F82500FFF7A8FE70
:1012DC000028F0D0A846EFE756F82480414638465F
:1012EC00FFF7D8FB0546631C414656F82300FFF771
:1012FC00D1FB01462846FFF78BFD054601E0002493
:10130C0000254C4512D05AF82460013431465AF865
:10131C002400FFF7BFFB2946FFF7C6FC3146FFF759
:10132C00BBFBBDE8F0874C460025EAE75AF82400E1
:10133C00F7E710B40A68B8B10223052A31D09342FA
:10134C003BD0032A12D005244FF0000C042A18D0ED
:10135C00012A1ED0002002B9022084451FD0012B87
:10136C0022D108B303231FE00123E6E7012B04D0AD
:10137C00012205244FF0020CE8E71C464FF0000C4C
:10138C00E4E7012B03D001224FF0030CE0E71C46ED
:10139C00DEE7022B01D00020DDE70220DBE7002096
:1013AC00DDE71C4600200523052C01D00C60002035
:1013BC00052B00D00B6010BC704700200524234681
:1013CC00F2E710B40A68B0B10223052A2CD093427C
:1013DC0036D0032A11D005244FF0000C042A17D064
:1013EC00022A1DD0002084451CD0012B1FD10328BC
:1013FC001DD104231BE00123E7E7012B04D00122BC
:10140C0005244FF0020CE9E71C464FF0000CE5E711
:10141C00012B03D001224FF0030CE1E71C46DFE760
:10142C000320E0E70020E0E71C4600200523052C04
:10143C0001D00C600020052B00D00B6010BC704755
:10144C00002005242346F2E72DE9F04F8BB0764BB4
:10145C0093F83760754A907993F8341093F83850B4
:10146C0012793AB1884213D8704B5B7993B915B99C
:10147C00012300E0002303F0FF04059463B96B4BD8
:10148C005B797BB182B9884210D88DB1002404E01D
:10149C000023F0E70023EEE70124E4B256B9ACB127
:1014AC00012208E00024F8E70024F6E70024F4E722
:1014BC000124F2E701225C4B83F83420884207D9DF
:1014CC005A4B9B887BB925B9012302E00022F2E735
:1014DC00002303F0FF0202923BB1534B93F83930D7
:1014EC0023B1012302E00023F3E70023DBB20193D5
:1014FC004D4B93F83A2000924C4A17681B69F81A26
:10150C000790002C38D04A4BD3E900ABFEF75AFFBA
:10151C004FF0010552465B46FFF740FA08B94FF011
:10152C000005EBB20493009B002B27D03E4B00220E
:10153C005A603D4B9A6893F83B3000998B4233D2FA
:10154C00394B00229A60DA60374A9368D268991A4C
:10155C0035D40691354B9B6803930BB9069B0393CB
:10156C00002E2FD0039B002B40D02F4B93F83C30F8
:10157C00002B3DD0002526E00494D4E7059B4BB10D
:10158C00294B93F835105A680498814238BF0132C0
:10159C005A60CEE7244B93F835105A680498814270
:1015AC0038BF013A5A60C4E71F4B93F836300199A3
:1015BC008B42C9D21C4B59689960DA60C4E7D31AC4
:1015CC000693C7E70025EDB2174B93F83D90A9455C
:1015DC0000D25F61144B5B69FB1A0893029B4BB101
:1015EC00114B93F8393073B1002304E00025EAE77E
:1015FC000125E8E7002303F0FF0233B100290DDBDE
:10160C004FF0000B03E00123F5E74FF0000B5FFAFE
:10161C008BFB7AB1002904DB01200CE04FF0010BAD
:10162C00F5E7002007E000BF7C04002060040020E8
:10163C00982800080020C0B2A74B1870A74991F851
:10164C003F8091F82774474594BF4FF0000A4FF044
:10165C00010A1C31FFF76DFE18B1A04B002283F874
:10166C002C249F495046FFF764FE28B19B4A92F800
:10167C002C34013382F82C349A49974B1878FFF7A5
:10168C0058FE18B1954B002283F82D2496495846E4
:10169C00FFF74FFE28B1914A92F82D34013382F8AE
:1016AC002D3447450AD98D4A92F82C3492F82D24C2
:1016BC001344DBB2012B0FD9002300E00023DAB274
:1016CC000992BBF1000F09D1834B1B78002B70D111
:1016DC00002A70D0012002E00123F0E70120C0B203
:1016EC007E4981F83A0091F82834984294BF002042
:1016FC000120794B58703031FFF763FE10B1774BF6
:10170C0000229A62754B03F12C0193F83E00FFF70F
:10171C0058FE18B1714A936A01339362A94527D2D6
:10172C00039FC82F49D96D4B986AFEF74BFE814633
:10173C008A463846FEF746FE00226C4BFEF704FD47
:10174C0002460B4648465146FEF7E0FFFFF74EF9BE
:10175C00674F07F138096749FFF7A6FA0D233A4698
:10176C004946FFF791FD6449FFF79EFA5B4B186001
:10177C000898FFF741FA0746584BD3F800A04FF0F2
:10178C007C515046FFF790FA01464FF0010938465C
:10179C00FFF728FC08B94FF000095FFA89F14F4BAD
:1017AC0083F83E90099B4BBBBBF1000F44D0012347
:1017BC0025E0012093E7002091E7484B986AFEF75B
:1017CC0001FE81468A460398FEF7FCFD0022474B3A
:1017DC00FEF7BAFC02460B4648465146FEF796FF0A
:1017EC00FFF704F9454F07F138094249FFF75CFA56
:1017FC000D233A464946FFF747FDB4E70123DBB218
:10180C00364A92F83790B9F1000F00D013B1334A31
:10181C0082F82934314B93F83420394B1A70B9F1D2
:10182C00000F0BD05970059B63B92C4B93F82934DE
:10183C00002B40D0012206E00023E0E7304B049A55
:10184C005A70F0E701222E4B9A70069A5A60019A50
:10185C001A724FF0010B51463846FFF7C3FB08B91B
:10186C004FF0000B1D4B83F83CB0079AB2F5957FF7
:10187C0034BF0020012093F82A34834204D3174B41
:10188C0093F82B34A34203D21E4B1A68134B1A61E4
:10189C00029B93B1114B002283F839200E4B5B78DD
:1018AC0093BBB9F1000F46D00C4B9B6A039A934241
:1018BC0043D3002229E00022C5E72CB9074B93F84B
:1018CC00393033B1012200E00122044B83F8392076
:1018DC00E4E70022F9E700BF780400207C04002034
:1018EC0094040020A00400209C0400200000F03F81
:1018FC00A02800080000C8426666EE4110290008C6
:10190C006C0400206004002001221B4B83F837205C
:10191C001A4A927983F8342083F83860009A83F855
:10192C003B20049A83F83520019A83F8362083F8FB
:10193C003D5000230CE00022E7E70122E5E7591CAB
:10194C000D4A551895F83F501A4482F83F500B46F3
:10195C0040F2E6329342F2DD074B83F8266483F8BB
:10196C00278493F83A2083F8282483F82A0483F8F0
:10197C002B440BB0BDE8F08F7C04002060040020E9
:10198C00044B05229A61DA611A625A62DA621A63AE
:10199C00704700BF7C04002082B00E4B9A6942F065
:1019AC0001029A619A6902F001020092009ADA69C6
:1019BC0042F08052DA61DB6903F080530193019BA2
:1019CC00054A536823F0E06343F00073536002B0A0
:1019DC00704700BF0010024000000140FEE7FEE728
:1019EC00FEE7FEE7FEE770477047704708B500F06A
:1019FC0061F808BD70470000FFF7FCFF0B480C496D
:101A0C000C4A002302E0D458C4500433C4188C424E
:101A1C00F9D3094A094C002301E013600432A242B5
:101A2C00FBD300F041FEFFF7D9FB7047000000200C
:101A3C003C040020B429000840040020D4080020F5
:101A4C00FEE7000010B504460E4B18784FF47A737D
:101A5C00B3FBF0F30C4A1068B0FBF3F000F086F81F
:101A6C0068B90F2C01D901200AE0002221464FF061
:101A7C00FF3000F043F8054B1C60002000E0012013
:101A8C0010BD00BF04000020000000200800002052
:101A9C0008B5074A136843F010031360032000F0E5
:101AAC001BF80020FFF7CEFFFFF776FF002008BDE4
:101ABC0000200240034A1168034B1B780B4413604F
:101ACC00704700BFAC08002004000020014B1868D0
:101ADC00704700BFAC080020074AD36823F4E063CA
:101AEC001B041B0C000200F4E060034343F0BF63D3
:101AFC0043F40033D360704700ED00E000B5194BA0
:101B0C00DB68C3F30223C3F1070CBCF1040F28BF3D
:101B1C004FF0040C03F1040EBEF1060F18D9033B71
:101B2C004FF0FF3E0EFA0CFC21EA0C0199400EFA24
:101B3C0003F322EA0303194300280BDB0901C9B2A2
:101B4C0000F1604000F5614080F800135DF804FB83
:101B5C000023E5E700F00F000901C9B2024B19544C
:101B6C00F4E700BF00ED00E014ED00E00138B0F147
:101B7C00807F0BD24FF0E0235861054AF02182F8A8
:101B8C0023100020986107221A61704701207047CA
:101B9C0000ED00E0044B0022DA61044A136943F0C3
:101BAC000103136101807047B0080020002002403F
:101BBC00194BDB6813F0100305D0184AD36943F0B6
:101BCC000203D3611023144AD26812F0040F06D01A
:101BDC001249CA6942F00102CA6143F004030E4A79
:101BEC00D26912F0010F09D00C49CA6942F0040203
:101BFC00CA610949CA6922F00102CA6140F20112A4
:101C0C00934202D0044AD3607047034AD36923F04D
:101C1C000103D361704700BF00200240B0080020D0
:101C2C000A4B1B6913F0800F0BD0084B084A5A6003
:101C3C0002F188325A601B6913F0800F03D1002027
:101C4C007047002070470120704700BF0020024001
:101C5C0023016745034A136943F080031361002095
:101C6C00704700BF0020024038B50446FFF72EFF36
:101C7C000546164BDB6813F0010F0AD0B4F1FF3F99
:101C8C00F7D024B1FFF722FF401BA042F1D903206B
:101C9C001BE00E4BDB6813F0200F02D00B4B202205
:101CAC00DA600A4BDB6813F0100F0BD1074BDB69C2
:101CBC0013F0010F06D1054BDB6813F0040F01D1B3
:101CCC00002002E0FFF774FF012038BD0020024025
:101CDC002DE9F8431E46244B1B7E012B41D00446B4
:101CEC000F469046204B01221A764CF25030FFF7EB
:101CFC00BBFF034678BB012C08D0022C03D04FF05D
:101D0C0004091C4607E04FF00209FAE74FF00109FD
:101D1C00F7E70134E4B24C451DD22101C1F1200298
:101D2C00A1F1200328FA01F106FA02F2114326FA76
:101D3C0003F3194389B207EB4400FFF72BFF4CF276
:101D4C005030FFF791FF094B1D6925F001051D610E
:101D5C0003460028DDD0044A002111761846BDE860
:101D6C00F8830223FAE700BFB008002000200240ED
:101D7C00064B0022DA61064B1A6942F004021A6122
:101D8C001A6942F040021A61704700BFB008002087
:101D9C0000200240064B0022DA61064B1A6942F021
:101DAC0002021A6158611A6942F040021A617047C6
:101DBC00B008002000200240264B1B7E012B46D091
:101DCC0070B505460E46234B01221A760368022B8A
:101DDC0020D04CF25030FFF747FF90BB4FF0FF3351
:101DEC003360AC680121EA68AB6803EB8223A34241
:101DFC0028D92046FFF7CEFF4CF25030FFF734FFC6
:101E0C00154A136923F0020313610146B8B904F5AE
:101E1C008064E8E74CF25030FFF726FF08B101214F
:101E2C0010E00120FFF7A4FF4CF25030FFF71CFF2D
:101E3C000146094A136923F00403136102E034607C
:101E4C0000E00121034B00221A76084670BD0221E6
:101E5C0008467047B00800200020024070B582B0E0
:101E6C000024A446A6E0804DAA4210D007D97F4D8D
:101E7C00AA420CD005F58035AA4208D013E0A5F58E
:101E8C008015AA4203D005F57025AA4207D18A68AD
:101E9C00002A58D0012A51D04361082403E0A5F54B
:101EAC008015AA42F3D0BEF1FF0F4ED80646BEF104
:101EBC00FF0F4CD84FEA8C0233680F25954023EA6C
:101ECC00050304FA02F2134333604B6813F0805F8E
:101EDC006ED0674B9A6942F001029A619B6903F0DC
:101EEC0001030193019B4FEA9C02951C614B53F833
:101EFC0025600CF003039D000F23AB4026EA03067C
:101F0C005D4B984229D003F58063984200F08E8097
:101F1C0003F58063984200F08B8003F58063984250
:101F2C0019D004231AE0CC68BDE7CC680434BAE7B6
:101F3C00CC680834B7E7CC680C34B4E703610824E8
:101F4C00B1E70024AFE70424ADE7061DAFE7ACF121
:101F5C0008029200B0E7032300E00023AB403343B8
:101F6C000232444D45F822304B6813F4801F61D087
:101F7C00424A936843EA0E0393604B6813F4001FC4
:101F8C005ED03E4AD36843EA0E03D3604B6813F429
:101F9C00003F5BD0394A536843EA0E0353604B68E9
:101FAC0013F4803F58D0354A136843EA0E0313608C
:101FBC000CF1010C0A6832FA0CF353D0012303FA2A
:101FCC000CF302EA030E33EA0202F1D14A68122A38
:101FDC003FF649AF122A3FF666AF01A555F822F03D
:101FEC009B1E0008331F00083D1F00084F1F0008F0
:101FFC00B31E0008B31E0008B31E0008B31E000871
:10200C00B31E0008B31E0008B31E0008B31E000860
:10201C00B31E0008B31E0008B31E0008B31E000850
:10202C00B31E0008371F0008431F0008012395E763
:10203C00022393E7114A936823EA0E0393609CE70B
:10204C000E4AD36823EA0E03D3609FE70B4A53680A
:10205C0023EA0E035360A2E7084A136823EA0E032F
:10206C001360A5E702B070BD000022100000311013
:10207C000010024000000140000801400004014033
:10208C008368194201D001207047002070470AB1C3
:10209C0001617047090401617047C36801EA0302DA
:1020AC0021EA030141EA02410161704782B0084B09
:1020BC001B68084AA2FB03235B0A00FB03F3019392
:1020CC0000BF019B5A1E0192002BF9D102B0704740
:1020DC0000000020D34D6210002800F0F18170B593
:1020EC0082B00446036813F0010F2CD0994B5B6847
:1020FC0003F00C03042B1DD0964B5B6803F00C0310
:10210C00082B12D06368B3F5803F41D0002B55D11A
:10211C0003F1804303F504331A6822F480321A6009
:10212C001A6822F480221A6037E08A4B5B6813F439
:10213C00803FE7D0874B1B6813F4003F03D06368E4
:10214C00002B00F0BF81236813F0020F75D0814B78
:10215C005B6813F00C0F5FD07E4B5B6803F00C03D5
:10216C00082B54D02369002B00F08A807A4B012273
:10217C001A60FFF7ABFC0546764B1B6813F0020F99
:10218C0075D1FFF7A3FC401B0228F5D903209EE173
:10219C00704A136843F480331360636843B3FFF7EA
:1021AC0095FC05466B4B1B6813F4003FCBD1FFF736
:1021BC008DFC401B6428F5D9032088E1B3F5A02FD2
:1021CC0009D0644B1A6822F480321A601A6822F41F
:1021DC0080221A60E1E703F18043A3F53C331A68CF
:1021EC0042F480221A601A6842F480321A60D4E7F2
:1021FC00FFF76CFC0546574B1B6813F4003FA2D04D
:10220C00FFF764FC401B6428F5D903205FE1514BB8
:10221C005B6813F4803FA5D14E4B1B6813F0020F83
:10222C0003D02369012B40F04F814A4A136823F0F5
:10223C00F803616943EAC1031360236813F0080FC4
:10224C0033D0A369002B5CD0434B0122C3F880240C
:10225C00FFF73CFC05463F4B5B6A13F0020F21D1A4
:10226C00FFF734FC401B0228F5D903202FE1394A33
:10227C00136823F0F803616943EAC1031360DCE7D8
:10228C00354B00221A60FFF721FC0546314B1B68C9
:10229C0013F0020FD1D0FFF719FC401B0228F5D91F
:1022AC00032014E10120FFF701FF236813F0040F52
:1022BC0000F09680274BDB6913F0805F34D1254BFF
:1022CC00DA6942F08052DA61DB6903F080530193E2
:1022DC00019B0125214B1B6813F4807F26D0E368FA
:1022EC00012B3DD0002B53D103F1804303F5043374
:1022FC001A6A22F001021A621A6A22F004021A62A5
:10230C0033E0154B0022C3F88024FFF7DFFB0546B2
:10231C00104B5B6A13F0020FC7D0FFF7D7FB401BC3
:10232C000228F5D90320D2E00025D3E70B4A136825
:10233C0043F480731360FFF7C9FB0646074B1B6819
:10234C0013F4807FCBD1FFF7C1FB801B6428F5D938
:10235C000320BCE00010024000004242007000402C
:10236C005F4A136A43F001031362E36833B3FFF768
:10237C00ADFB06465A4B1B6A13F0020F2FD1FFF729
:10238C00A5FB801B41F288339842F3D903209EE0D1
:10239C00052B09D0524B1A6A22F001021A621A6AF2
:1023AC0022F004021A62E0E74D4B1A6A42F0040272
:1023BC001A621A6A42F001021A62D6E7FFF786FB2C
:1023CC000646474B1B6A13F0020F08D0FFF77EFB43
:1023DC00801B41F288339842F3D9032077E0E5B9AA
:1023EC00E369002B72D03E4A526802F00C02082AB4
:1023FC0056D0022B17D03B4B00221A66FFF766FB18
:10240C000446374B1B6813F0007F47D0FFF75EFB89
:10241C00001B0228F5D9032059E0314AD36923F077
:10242C008053D361DCE72F4B00221A66FFF74EFB7B
:10243C0005462B4B1B6813F0007F06D0FFF746FBBD
:10244C00401B0228F5D9032041E0236AB3F5803FF5
:10245C001AD023494B6823F47413226A606A02432E
:10246C0013434B601F4B01221A66FFF72FFB0446E8
:10247C001B4B1B6813F0007F0ED1FFF727FB001BD3
:10248C000228F5D9032022E0154A536823F40033BF
:10249C00A1680B435360DCE7002018E0002016E035
:1024AC00012B16D00E4B5B6803F48031226A9142EB
:1024BC0011D103F47013626A93420ED1002006E02E
:1024CC0001207047012002E0012000E0002002B052
:1024DC0070BD0120FBE70120F9E70120F7E700BF01
:1024EC0000100240000042420F4B5B6803F00C02EC
:1024FC00082A01D00D487047C3F383420C49885C0D
:10250C0013F4803F0BD0084B5B68C3F34043094A7C
:10251C00D35C064A02FB00F0B0FBF3F07047064BAD
:10252C0003FB00F0704700BF0010024000127A005D
:10253C0090290008A029000800093D00002800F09F
:10254C00A08070B50D460446524B1B6803F0070380
:10255C008B420BD24F4A136823F007030B431360D3
:10256C00136803F007038B4240F08D80236813F04F
:10257C00020F17D013F0040F04D0474A536843F4EA
:10258C00E0635360236813F0080F04D0424A536889
:10259C0043F460535360404A536823F0F003A1683E
:1025AC000B435360236813F0010F31D06368012B88
:1025BC0020D0022B25D0384A126812F0020F64D0BA
:1025CC0035494A6822F0030213434B60FFF77EFA49
:1025DC000646314B5B6803F00C036268B3EB820F69
:1025EC0016D0FFF773FA801B41F288339842F0D96A
:1025FC00032045E0284A126812F4003FE0D1012084
:10260C003EE0254A126812F0007FD9D1012037E054
:10261C00204B1B6803F00703AB420AD91D4A136811
:10262C0023F007032B431360136803F00703AB423B
:10263C002DD1236813F0040F06D0174A536823F4E6
:10264C00E063E1680B435360236813F0080F07D075
:10265C00114A536823F46053216943EAC103536060
:10266C00FFF742FF0C4B5B68C3F303130B4AD35CBD
:10267C00D8400B4B18600B4B1868FFF7E3F90020A0
:10268C0070BD012070470120FAE70120F8E7012016
:10269C00F6E700BF0020024000100240802900082D
:1026AC00000000200800002070B50D4E0D4D761B6B
:1026BC00B61006D0002455F8043B01349847A642C6
:1026CC00F9D1094E094D00F0D5F8761BB61006D09D
:1026DC00002455F8043B01349847A642F9D170BD4B
:1026EC00A8290008A8290008B0290008A829000872
:1026FC00830730B548D0541E002A3FD00346CAB2D7
:10270C0001E0013C3AD303F8012B9D07F9D1032CCE
:10271C002DD9CDB245EA05250F2C45EA054536D90C
:10272C00A4F1100222F00F0C03F1200EE6444FEA44
:10273C00121C03F1100242E9045542E90255103211
:10274C007245F8D10CF1010214F00C0F03EB0212DC
:10275C0004F00F0C13D0ACF1040323F00303043387
:10276C00134442F8045B9342FBD10CF003042CB1EC
:10277C00CAB21C4403F8012B9C42FBD130BD644609
:10278C001346002CF4D1F9E703461446BFE71A466A
:10279C00A446E0E7024B13B1024800F005B87047BD
:1027AC0000000000C1270008002301461A46184605
:1027BC0000F01AB838B5084B084D5B1B9C1007D0BD
:1027CC00043B1D44013C55F804399847002CF9D1C1
:1027DC00BDE8384000F054B8B4290008B02900080E
:1027EC00704700BF704700BF2DE9F047DFF87CA0B1
:1027FC000646DAF8000098460F469146FFF7F0FFC0
:10280C001B4B1B68D3F8484124B365681F2D26DC8D
:10281C005EB96B1C0235DAF80000636044F8257071
:10282C00FFF7E0FF0020BDE8F087012304EB8501F2
:10283C00C1F88890D4F88821AB401A43022EC4F812
:10284C008821C1F80881E4D1D4F88C211343C4F851
:10285C008C31DEE703F5A674C3F84841D5E7DAF806
:10286C000000FFF7BFFF4FF0FF30DCE7380400201B
:10287C00A4290008F8B500BFF8BC08BC9E467047F8
:0C288C00F8B500BFF8BC08BC9E467047C1
:102898000000000000A0624075662041663E8A4044
:1028A800762B0E409D83B93F8428953FA0C8873F6B
:1028B8000CDD823F0CDD823FA0C8873F8428953F0E
:1028C8009D83B93F762B0E40663E8A40756620414F
:1028D800000000000000803F000000400000404071
:1028E800000080400000A0400000C0400000BC4242
:1028F8000000BE420000C0420000C2420000C442C4
:102908000000C6420000C842000020419A991141C7
:102918003333F3409A99B940000080403333134071
:102928000000803F0000803F3333134000008040A8
:102938009A99B9403333F3409A99114100002041E4
:10294800000000000000803F000040400000C04040
:1029580000002041000080410000C841000094426E
:102968000000AA420000B6420000BE420000C44275
:102978000000C6420000C84200000000000000003D
:1029880001020304060708090203040506070809EB
:102998000A0B0C0D0E0F1010010200001000002091
:0829A800A1270008310100081D
:0429B0000D0100080D
:1029B4000024F400010000001000000000000000EA
:1029C40000000000FC02002064030020CC0300206F
:1029D40000000000000000000000000000000000F3
:1029E40000000000000000000000000000000000E3
:1029F40000000000000000000000000000000000D3
:102A040000000000000000000000000000000000C2
:102A140000000000000000000000000000000000B2
:102A240000000000000000000000000000000000A2
:102A34000000000000000000000000000000000092
:102A44000000000000000000000000000000000082
:102A54000000000000000000000000000000000072
:102A64000000000000000000010000000000000061
:102A74000E33CDAB34126DE6ECDE05000B00000026
:102A84000000000000000000000000000000000042
:102A94000000000000000000000000000000000032
:102AA4000000000000000000000000000000000022
:102AB4000000000000000000000000000000000012
:0C2DE4000000000000000000D0080020EB
:0400000508001A05D0
:00000001FF
